:020000040800F2
:100000000004002047010008F5010008F70100087E
:10001000FB010008FF0100080302000800000000C7
:1000200000000000000000000000000007020008BF
:1000300009020008000000000B0200080D02000881
:1000400067010008670100086701000867010008F0
:1000500067010008670100086701000867010008E0
:1000600067010008670100086701000867010008D0
:1000700067010008670100086701000867010008C0
:1000800067010008670100086701000867010008B0
:1000900067010008670100086701000867010008A0
:1000A0006701000867010008670100086701000890
:1000B00067010008670100081102000867010008D5
:1000C0006701000867010008670100086701000870
:1000D000670100080F0200086701000867010008B7
:1000E0006701000867010008670100086701000850
:1000F0006701000867010008670100086701000840
:10010000670100086701000867010008670100082F
:10011000670100086701000867010008670100081F
:10012000670100086701000867010008670100080F
:10013000DFF80CD001F088FB00480047750100088B
:1001400090020020704708488047084981F30888DA
:1001500007480047FEE7FEE7FEE7FEE7FEE7FEE7AB
:10016000FEE7FEE7FEE7FEE74501000890020020FB
:10017000310100084FF4FA74002501F03BFB00F058
:1001800057F822460121002000F0C8F841F28832D9
:100190000121084600F0C2F84821012000F05EF875
:1001A00025E0002000F0DFF880B12DB14FF4804150
:1001B0000F4801F05AF804E04FF480410C4801F078
:1001C00056F80DB9012000E000200546012000F09E
:1001D000CAF860B104F5FA7080B204460246012103
:1001E000002000F0ACF8B4F5FA6F00D10024D8E795
:1001F000000C0140704700BFFEE700BFFEE700BFF4
:10020000FEE700BFFEE770477047704770477047D2
:1002100010B50121054800F090FE28B101210348E6
:1002200000F09CFE00F064F810BD000000080040E3
:1002300008B50121082001F007FA4FF48040ADF81D
:10024000000010208DF8030002208DF8020069469E
:10025000014800F05DFF08BD000C01407FB5054678
:100260000C4605EB85000121C1EB400085B204EB93
:10027000C40000EB0410C1EB800084B2042001F044
:10028000F0F9ADF80850ADF804400020ADF80A00D0
:10029000ADF8060001A90E4800F0EBF80122114666
:1002A0000B4800F087FB1E208DF8000000208DF821
:1002B000010003208DF8020001208DF8030068463C
:1002C00000F055FE0121024800F059FB7FBD0000FF
:1002D00000080040416851B14168491E416031B990
:1002E000012141700178012901D181684160704785
:1002F00000B500220FE002EB4200274901EB80002D
:10030000406830B102EB4201234B03EB8100FFF761
:10031000E1FF501CC2B20A2AEDDB00BD10B500EBB4
:1003200040031D4C04EB83035A6000EB400304EBD5
:1003300083039A6000EB400304F8231010BD10B54E
:10034000012383F3108800BF00EB4003124C04EB41
:1003500083039A6000EB400304F82310002383F327
:10036000108800BF10BD01460A2901DD002070473A
:1003700001EB4100084A02EB80004078012808D1D7
:10038000002001EB4102044B03EB8202507001207C
:10039000EDE70020EBE700001400002010B5044654
:1003A000F749601A8C4245D00CDCB4F1804F1DD067
:1003B000F448204418B3B0F5806F29D0B0F5006F31
:1003C00054D12EE0B0F5806F3DD0B0F58E3F03D014
:1003D000B0F5923F4AD13FE00121C80201F04EF949
:1003E00000214FF4006001F049F940E00121084686
:1003F00001F051F90021012001F04DF937E0012110
:10040000022001F048F90021022001F044F92EE019
:100410000121042001F03FF90021042001F03BF903
:1004200025E00121082001F036F90021082001F023
:1004300032F91CE00121102001F02DF900211020DB
:1004400001F029F913E00121202001F024F9002115
:10045000202001F020F90AE00121480301F00EF903
:1004600000214FF4005001F009F900E000BF00BF87
:1004700010BD028802F08F020280CA884B881A439E
:1004800003881A4302808A8882850A880285BE4AC8
:10049000904202D0BD4A904201D10A7A02860122DE
:1004A0008282704770B5002400220023058C4FF62D
:1004B000FE7635400584028C8388048B4FF68F7559
:1004C0002C400D882C43751E2A400D892A434D88E7
:1004D0002A43CD888586AC4DA84202D0AB4DA842B8
:1004E00013D14FF6F7752A404D892A434FF6FB7515
:1004F0002A408D882A4347F6FF652B4047F6FF5573
:100500002B408D892B43CD892B4383800483028428
:1005100070BD70B5002400220023058C4FF6EF76E5
:1005200035400584028C8388048B48F6FF752C4087
:100530000D884FF6FF7606EA05252C434FF6DF754A
:100540002A400D8906EA05152A434D8806EA051555
:100550002A43CD8805878C4DA84202D08B4DA842F6
:100560001DD14FF67F752A404D894FF6FF7606EA7A
:1005700005152A434FF6BF752A408D8806EA0515F2
:100580002A4347F6FF352B4047F2FF752B408D89F4
:1005900006EA85052B43CD8906EA85052B43838032
:1005A0000483028470BD70B5002400220023058CF2
:1005B0004FF6FF6635400584028C8388848B4FF6A6
:1005C0008F752C400D882C434FF6FF552A400D891E
:1005D0004FF6FF7606EA05252A434D8806EA0525EB
:1005E0002A43CD888587684DA84202D0674DA8422E
:1005F0001DD14FF2FF752A404D894FF6FF7606EA6E
:1006000005252A434FF6FF352A408D8806EA052541
:100610002A4346F6FF752B4045F6FF752B408D8922
:1006200006EA05152B43CD8906EA05152B43838081
:100630008483028470BD70B5002400220023058CE1
:100640004EF6FF7635400584028C8388848B48F60D
:10065000FF752C400D884FF6FF7606EA05252C43E2
:100660004DF6FF752A400D8906EA05352A434D8867
:1006700006EA05352A43CD88A0F84050424DA842ED
:1006800002D0424DA84207D1C3F30D038D894FF626
:10069000FF7606EA85152B4383808483028470BD30
:1006A000828B4FF2FF331A408283828B4FF6FF73A7
:1006B00003EA01231A4382837047F0B50C461546BE
:1006C000002100220026078C4EF6FF7C07EA0C076B
:1006D0000784818B028C4FF6FF7707EA043640F6D9
:1006E000FF4739404FF6FF7707EA05274FF6FF7CB3
:1006F0000CEA033C47EA0C0739434DF6FF773A40D2
:1007000046F480573A4381830284F0BD828B4FF6D2
:10071000F3731A408283828B0A4382837047F0B559
:100720000C461546002100220026078C4FF6FF6C70
:1007300007EA0C070784818B028C4FF6FF7707EAE4
:1007400004264FF60C7739404FF6FF7707EA031778
:100750002F4339434FF6FF573A4046F480773A43E8
:1007600081830284F0BD028B4FF2FF331A40028373
:10077000028B4FF6FF7303EA01231A43028370478B
:100780000010004000FCFFBF002C0140003401407D
:10079000F0B50C461546002100220026078C4FF6C6
:1007A000EF7C07EA0C070784018B028C4FF6FF777A
:1007B00007EA041640F6FF4739404FF6FF7707EA8D
:1007C000033739434FF6FF7707EA052739434FF6DA
:1007D000DF773A4046F010073A4301830284F0BDC8
:1007E000028B4FF6F3731A400283028B0A43028393
:1007F0007047F0B50C46154600210022068C4FF6D6
:10080000FE773E400684018B028C4FF60C76314019
:100810007E1C06EA03162E4331437E1E324044F00E
:100820000106324301830284F0BD70B505460C46D3
:10083000208850B92389A28861882846FFF7D9FF0C
:10084000E1882846FFF7CCFF25E0208804280AD15C
:100850002389A28861882846FFF79AFFE188284605
:10086000FFF781FF17E0208808280AD12389A28892
:1008700061882846FFF753FFE1882846FFF746FFC7
:1008800009E02389A28861882846FFF716FFE188DE
:100890002846FFF705FF70BD2DE9F04105460C46DF
:1008A00000260127608808B9022600E00026A088FB
:1008B000012801D1022700E001272088A0B923895F
:1008C000A28861882846FFF794FFE1882846FFF751
:1008D00087FF23893A4631462846FFF759FFE188CA
:1008E0002846FFF740FF13E02389A2886188284645
:1008F000FFF74EFFE1882846FFF735FF23893A4688
:1009000031462846FFF775FFE1882846FFF768FF64
:10091000BDE8F0810A884B881A438B881A43CB883C
:100920001A430B891A434B891A438B891A43A0F83F
:10093000442070474FF6FF71818000210180C18003
:100940004180017270470021018041808180C18017
:10095000018141818181C1817047002101804180F5
:10096000012181800021C180018170470021018027
:1009700041808180C180018141818181704721B1A5
:10098000028842F00102028004E0028840F2FE3355
:100990001A400280704731B1B0F8442042F400425E
:1009A000A0F8442005E0B0F84420C2F30E02A0F8FD
:1009B000442070471AB183890B43838102E0838905
:1009C0008B43838170478182704741EA0203A0F81C
:1009D000483070471AB183890B43838102E08389D1
:1009E0008B438381704701894FF6F8721140018172
:1009F00070470A46002101894FF68F731940114351
:100A00000181704730B504460D4629462046FFF760
:100A1000F0FF208940F00700208130BD2DE9F04132
:100A200004460D4616461F46602D06D13B46012260
:100A300031462046FFF7ACFE05E03B460122314639
:100A40002046FFF7D6FE29462046FFF7D2FF208931
:100A500040F007002081BDE8F08170B50C46002110
:100A60000189C9B244EA02054FF6FF7606EA032679
:100A700035432943018170BD2DE9F04105460E46FD
:100A800017469846002443463A4631462846FFF723
:100A9000E4FF2C894FF6F870044044F007044FF649
:100AA0008F70044044F070042C81BDE8F081F0B5F3
:100AB00004460D4616461F463B463246294620460A
:100AC000FFF7CBFF208940F480402081F0BD0185F5
:100AD000828270470A460021018840F28F33194014
:100AE000114301807047F0B50C4615461E460021A3
:100AF000002200230189028B038C4FF6F8773940DE
:100B000021434FF6FC473A4040F201173A434FF673
:100B1000DD773B404FF6FF7707EA06172F433B434D
:100B2000018102830384F0BD0A460021018B4FF648
:100B30008F7319401143018370470A460021018BCE
:100B400048F6FF7319404FF6FF7303EA0223194377
:100B5000018370470A460021818B4FF68F7319403D
:100B60001143818370470A460021818B48F6FF7349
:100B700019404FF6FF7303EA02231943818370473C
:100B800021B1028842F08002028004E0028840F233
:100B90007F331A400280704721B1828842F00402FC
:100BA000828004E082884FF6FB731A40828070478F
:100BB00021B1828842F00802828004E082884FF6E8
:100BC000F7731A408280704721B1828842F0010297
:100BD000828004E082884FF6FE731A40828070475C
:100BE0000A460021018B4FF6F77319401143018328
:100BF00070470A460021018B4FF2FF7319404FF6F0
:100C0000FF7303EA02231943018370470A46002158
:100C1000818B4FF6F77319401143818370470A4661
:100C20000021818B4FF2FF7319404FF6FF7303EAE7
:100C300002231943818370470A460021018B4FF636
:100C4000FB7319401143018370470A460021018B51
:100C50004FF6FF3319404FF6FF7303EA022319439F
:100C6000018370470A460021818B4FF6FB731940C0
:100C70001143818370470A460021818B4FF6FF3371
:100C800019404FF6FF7303EA02231943818370472B
:100C90000A460021018B4FF67F73194011430183EF
:100CA00070470A460021018BC1F30E014FF6FF7316
:100CB00003EA02231943018370470A460021818B0E
:100CC0004FF67F7319401143818370470A46002114
:100CD000818BC1F30E014FF6FF7303EA0223194320
:100CE000818370470A460021018C4FF6FD7319403D
:100CF0001143018470470A460021018C4FF6F773B7
:100D000019401143018470470A460021018C4FF6B7
:100D1000DF7319404FF6FF7303EA0213194301848E
:100D200070470A460021018C4FF67F7319404FF639
:100D3000FF7303EA02131943018470470A46002136
:100D4000018C4FF6FF5319404FF6FF7303EA02235D
:100D50001943018470470A460021018C4FF2FF734A
:100D600019404FF6FF7303EA0223194301847047C9
:100D70000A460021018C4DF6FF7319404FF6FF73B0
:100D800003EA023319430184704710B5038C012430
:100D90008C40A3430384038C02FA01F4A4B22343DE
:100DA000038410BD10B5038C04248C40A34303843A
:100DB000038C02FA01F4A4B22343038410BD30B5BE
:100DC000038C01248C40A343038409B1082918D162
:100DD00000F1180303EB61031B684FF68F74234087
:100DE00000F1180404EB6104236000F1180303EB25
:100DF00061031B68134300F1180404EB61042360D2
:100E00001FE00B1FC3F34E0400F118031B5948F6F3
:100E1000FF7423400C1FC4F34E0500F11804635106
:100E20000B1FC3F34E0400F118031B594FF6FF7458
:100E300004EA022423430C1FC4F34E0500F11804F6
:100E4000635130BD21B1028842F00202028004E009
:100E5000028840F2FD331A400280704721B10288B7
:100E600042F00402028004E0028840F2FB331A40A0
:100E70000280704721B1828842F08002828004E0C3
:100E800082884FF67F731A4082807047028840F252
:100E9000F7331A40028002880A4302807047828832
:100EA0004FF68F731A40828082880A43828070478F
:100EB00002894FF6F8731A40028102890A430281BF
:100EC000704702894FF67F731A40028102890A43F4
:100ED00002817047818470478185704781867047A1
:100EE0000187704781877047A0F8401070470288DB
:100EF000D2B2028002880A43028070470146888E7F
:100F000070470146088F70470146888F7047014639
:100F1000B1F8400070470146888C70470146088D43
:100F2000704702460020138A0B400BB1012000E0FD
:100F300000207047CA430282704730B50246002045
:100F400000230024158A05EA0103958905EA0104B6
:100F500013B10CB1012000E0002030BDCA43028271
:100F60007047000031490143314A1160704770B544
:100F7000002100230F22C47804B32D4C246804F40C
:100F8000E064C4F5E064210AC1F10403CA40447876
:100F900004FA03F18478144021430901254C0678B2
:100FA000A155047804F01F050124AC4005786D11AB
:100FB000AD0005F1E025C5F8004109E0047804F032
:100FC0001F050124AC401C4D0678761145F82640DB
:100FD00070BD1A4A0A400243154B1B1F1A60704726
:100FE00039B1134A121D12680243114B1B1D1A60BE
:100FF00006E00F4A121D126882430D4B1B1D1A603A
:101000007047042808D14FF0E021096941F004013C
:101010004FF0E022116107E04FF0E021096921F073
:1010200004014FF0E0221161704700000000FA0552
:101030000CED00E000E400E080E100E080FFFF1F35
:1010400010B50446C649601A8C422FD009DCC54849
:10105000204480B1B0F5806F16D0B0F5006F4AD152
:101060001BE0B0F5806F2AD0B0F5006F30D0B0F53E
:10107000406F40D135E00121042000F0FFFA00214B
:10108000042000F0FBFA37E00121082000F0F6FA16
:101090000021082000F0F2FA2EE00121102000F0DB
:1010A000EDFA0021102000F0E9FA25E001212020CE
:1010B00000F0E4FA0021202000F0E0FA1CE0012119
:1010C000402000F0DBFA0021402000F0D7FA13E0C6
:1010D0000121802000F0D2FA0021802000F0CEFA19
:1010E0000AE00121080200F0C9FA00214FF48070E3
:1010F00000F0C4FA00E000BF00BF10BD10B5012130
:10110000084600F0BBFA0021012000F0B7FA10BD3C
:101110002DE9F0410246002500260020002300248E
:10112000002791F803C00CF00F0591F803C00CF0F4
:10113000100CBCF1000F03D091F802C04CEA050579
:1011400091F800C0BCF1000F31D0146800202BE0F2
:101150004FF0010C0CFA00F3B1F800C00CEA0306E2
:101160009E4220D183004FF00F0C0CFA03F7BC43D2
:1011700005FA03FC4CEA040491F803C0BCF1280F03
:1011800006D14FF0010C0CFA00FCC2F814C00AE0C2
:1011900091F803C0BCF1480F05D14FF0010C0CFAD7
:1011A00000FCC2F810C0401C0828D1D31460B1F86C
:1011B00000C0BCF1FF0F34DD546800202EE000F1C8
:1011C000080C4FF0010808FA0CF3B1F800C00CEA63
:1011D00003069E4221D183004FF00F0C0CFA03F757
:1011E000BC4305FA03FC4CEA040491F803C0BCF1CB
:1011F000280F05D100F1080C08FA0CF8C2F8148089
:1012000091F803C0BCF1480F07D100F1080C4FF072
:10121000010808FA0CF8C2F81080401C0828CED348
:101220005460BDE8F0814FF6FF71018002218170AA
:101230000421C17070470246002093680B400BB137
:10124000012000E0002070470146886880B27047A6
:1012500002460020D3680B400BB1012000E00020C3
:1012600070470146C86880B27047016170474161AC
:1012700070470AB1016100E041617047C160704789
:101280004FF480320A43826181618261826982699E
:10129000704702460020344B18684FF680731840A0
:1012A00040EA02100843304B186070472F49C8616C
:1012B0007047F0B50A4600230024002100252A4E7D
:1012C0007168C0F3034583B200F44016B6F5401FC1
:1012D00008D121F07061244E766826F07066224FA6
:1012E0007E6012E000F48016B6F5801F06D103265A
:1012F00006FA05F4A14341F0706106E0460D36019F
:1013000003FA06F6B14341F0706122B1460D360191
:1013100003FA06F63143144E7160F0BD30B5002279
:101320008B071C0F0F2303FA04F20F4B08338C10AA
:1013300053F8243093430C4C08348D1044F8253076
:1013400023468C1053F824308C07240F00FA04F441
:101350002343054C08348D1044F8253030BD00007F
:101360000014014000F8FEBF0000014000002042D0
:10137000DE48006840F00100DC490860084640682B
:10138000DB490840D949486008460068D949084007
:10139000D64908600846006820F4802008600846A6
:1013A000406820F4FE004860002088607047CF4904
:1013B000096821F48031CD4A11601146096821F491
:1013C00080211160B0F5803F03D0B0F5802F0ED1A1
:1013D00006E0C649096841F48031C44A116007E05B
:1013E000C249096841F4A021C04A116000E000BF71
:1013F00000BF704710B501460022002300204A11AB
:10140000012A02D1B94C236806E0022A02D1B74C66
:10141000236A01E0B54C636A01F01F020124944085
:101420001C400CB1012000E0002010BD38B50020A8
:1014300000900024002500BF3120FFF7DBFF0546A8
:101440000098401C00901DB90098B0F5A06FF3D132
:101450003120FFF7CFFF08B1012400E0002420462F
:1014600038BD01460020A14A106820F0F80040EA8B
:10147000C10010607047A049086070470246002014
:101480009A4B586820F47C1042EA01031843974BAA
:101490005860704798490866704701460020934A93
:1014A000506820F003000843506070478F48406840
:1014B00000F00C007047014600208C4A506820F074
:1014C000F00008435060704701460020874A50688A
:1014D00020F4E06008435060704701460020834AD2
:1014E000506820F4605040EAC1005060704729B154
:1014F0007E4A527A02437D4B5A7204E07B4A527A0A
:1015000082437A4B5A7270477B49D83108607047E2
:1015100001460020754A506820F44040084350605E
:1015200070470021714A20321170704A82F82010F1
:10153000012802D004280AD104E001216B4A20329C
:10154000117005E00521694A2032117000E000BFEA
:1015500000BF70476949086070476449096A0143E0
:10156000624A11627047654944390860704730B576
:1015700000210022002400235C4D6D6805F00C0161
:1015800021B1042905D0082923D105E05C4D05606F
:1015900022E05B4D05601FE0544D6D6805F470124C
:1015A000022505EB9242514D6D6805F480341CB95B
:1015B000544D554305600BE04C4D6D6805F4003506
:1015C0001DB1504D5543056002E04D4D554305603A
:1015D00002E04B4D056000BF00BF444D6D6805F053
:1015E000F0010909484D6B5C0568DD4045603F4DE1
:1015F0006D6805F4E061090A434D6B5C4568DD40A8
:1016000085603A4D6D6805F46051C90A3E4D6B5CCA
:101610004568DD40C560354D6D6805F44041890B76
:101620003A4D6B5CC568B5FBF3F5056130BD29B17A
:101630002E4A526902432D4B5A6104E02B4A5269EB
:1016400082432A4B5A61704729B1284A9269024362
:10165000264B9A6104E0254A92698243234B9A61A2
:10166000704729B1214AD2690243204BDA6104E074
:101670001E4AD26982431D4BDA61704729B11B4A69
:10168000D2680243194BDA6004E0184AD2688243F8
:10169000164BDA60704729B1144A12690243134BA2
:1016A0001A6104E0114A12698243104B1A617047B3
:1016B00012494039086070470F49C86470470B49A8
:1016C000C87170470948406A40F080700749486215
:1016D000704701460020054A92680A400AB101207D
:1016E00000E00020704701498872704700100240F6
:1016F0000000FFF8FFFFF6FE000042428004424275
:1017000000127A0000093D000000002010000020B7
:101710000CB50020019000904748006840F48030EC
:101720004549086000BF4448006800F4003000905C
:101730000198401C0190009818B90198B0F5A06F6D
:10174000F1D13D48006800F4003010B10120009054
:1017500001E0002000900098012844D1374800683B
:1017600040F01000354908600846006820F003008A
:1017700008600846006840F0020008602E48406893
:101780002D4948600846406848600846406840F473
:10179000806048600846406820F47C104860084635
:1017A000406840F4E81048600846006840F08070E7
:1017B000086000BF2048006800F000700028F9D0E1
:1017C0001D48406820F003001B49486008464068F7
:1017D00040F00200486000BF1748406800F00C006D
:1017E0000828F9D101E000BFFEE70CBD10B5FFF7F6
:1017F0008FFF10BD10B51048006840F001000E4981
:101800000860084640680E4908400B494860084691
:1018100000680C490840084908600846006820F440
:10182000802008600846406820F4FE0048600020E0
:101830008860FFF7DBFF10BD00100240002002406F
:101840000000FFF8FFFFF6FE064C074D06E0E068DB
:1018500040F0010394E8070098471034AC42F6D3F7
:10186000FEF76AFC8C180008AC18000802E008C8F3
:10187000121F08C1002AFAD170477047002001E00A
:1018800001C1121F002AFBD170470000AC180008EC
:1018900000000020140000006C180008C0180008A8
:1018A000140000207C0200007C18000800000000EA
:1018B00001020304010203040607080902040608E2
:0400000508000147A7
:00000001FF
