:020000040800F2
:100000000004002047010008F1020008F302000884
:10001000F7020008FB020008FF02000800000000D1
:1000200000000000000000000000000003030008C2
:10003000050300080000000007030008090300088A
:1000400067010008670100086701000867010008F0
:1000500067010008670100086701000867010008E0
:1000600067010008670100086701000867010008D0
:1000700067010008670100086701000867010008C0
:1000800067010008670100086701000867010008B0
:1000900067010008670100086701000867010008A0
:1000A0006701000867010008670100086701000890
:1000B00067010008670100080D03000867010008D8
:1000C0006701000867010008670100086701000870
:1000D000670100080B0300086701000867010008BA
:1000E0006701000867010008670100086701000850
:1000F0006701000867010008670100086701000840
:10010000670100086701000867010008670100082F
:10011000670100086701000867010008670100081F
:10012000670100086701000867010008670100080F
:10013000DFF80CD002F08CFB004800477501000886
:10014000B8020020704708488047084981F30888B2
:1001500007480047FEE7FEE7FEE7FEE7FEE7FEE7AB
:10016000FEE7FEE7FEE7FEE745010008B8020020D3
:10017000310100080EB500240025002002900190F6
:1001800000904FF44877002601F062FF00F0CEF8AF
:1001900000F088F93A460121002000F043F91E22C0
:1001A0000121022000F03EF91E220121032000F06F
:1001B00039F91E220121042000F034F948210120E0
:1001C00000F0D0F84521FE2000F0A6F989E00020DB
:1001D00000F04DF980B12EB14FF48041414801F05B
:1001E00072FC04E04FF480413E4801F06EFC0EB911
:1001F000012000E000200646022000F038F920B17E
:100200000222394902A800F064F9032000F02FF916
:1002100020B10422344901A800F05BF9042000F069
:1002200026F920B108223049684600F052F99DF8BD
:10023000080003280AD1601CC4B2254304200290A0
:100240004FF47A720021072000F0ECF89DF80400CA
:1002500003280CD1601CC4B245EA8400C5B2042056
:1002600001904FF47A720021072000F0DBF89DF82E
:10027000000003280CD1601CC4B245EA0410C5B2CA
:10028000042000904FF47A720021072000F0CAF891
:10029000072000F0ECF808B100240025052000F04C
:1002A000E6F818B11421114800F07EFB062000F09A
:1002B000DEF818B114210D4800F001FC05F0030030
:1002C00001280ED105F00C0008280AD105F03000F5
:1002D000302806D1002400250A220121052000F043
:1002E000A1F874E7000C0140000801400020202024
:1002F000704700BFFEE700BFFEE700BFFEE700BF9C
:10030000FEE77047704770477047704710B501218E
:10031000054801F040FA28B10121034801F04CFAE8
:1003200000F06AF810BD00000008004008B5012187
:10033000082001F0B7FD4FF48040ADF80000102018
:100340008DF8030002208DF802006946044801F090
:100350000DFB4FF48041024801F0B5FB08BD0000E1
:10036000000C01407FB505460C4605EB85000121D8
:10037000C1EB400085B204EBC40000EB0410C1EBFC
:10038000800084B2042001F09AFDADF80850ADF869
:1003900004400020ADF80A00ADF8060001A90E489F
:1003A00000F095FC012211460B4800F031FF1E20A1
:1003B0008DF8000000208DF8010003208DF8020068
:1003C00001208DF80300684601F0FFF90121024881
:1003D00000F003FF7FBD000000080040416851B1FC
:1003E0004168491E416031B90121417001780129FC
:1003F00001D181684160704700B500220FE002EB37
:100400004200274901EB8000406830B102EB420115
:10041000234B03EB8100FFF7E1FF501CC2B20A2A15
:10042000EDDB00BD10B500EB40031D4C04EB830376
:100430005A6000EB400304EB83039A6000EB400337
:1004400004F8231010BD10B5012383F3108800BFFA
:1004500000EB4003124C04EB83039A6000EB400373
:1004600004F82310002383F3108800BF10BD014659
:100470000A2901DD0020704701EB4100084A02EB28
:1004800080004078012808D1002001EB4102044B94
:1004900003EB820250700120EDE70020EBE7000043
:1004A0004000002008B50121042001F0FBFC0E20D3
:1004B000ADF8000028208DF8030002208DF802001E
:1004C0006946144801F052FA0E21124801F0FDFA73
:1004D00008BD2DE9F04104460D4616463146284632
:1004E00001F0D7FA0746012F07D1207810B9012073
:1004F00020700CE00220207009E02078022802D150
:100500000320207003E0207808B100202070BDE8AF
:10051000F08100000008014030B589B005460C4666
:100520000121022001F0CBFC0121092001F0BAFCDD
:1005300001211E4801F0EBFA2020ADF82000182020
:100540008DF8230003208DF8220008A9184801F037
:100550000DFAADF81850ADF814400020ADF81A00AF
:10056000ADF8160005A9134800F0B1FB6020ADF806
:1005700004000120ADF806000020ADF80C0001A930
:100580000C4800F0F4FB08210A4800F060FF01214C
:10059000084800F023FF0121064800F01EFE00205D
:1005A00004493831088009B030BD000000081A0045
:1005B000000C0140000400402DE9F04F91B081464D
:1005C0008A4693461C46DDE91A56584601F0EDFF6F
:1005D0000022FE4BCDE90A0101F0D3FECDE90C016A
:1005E00002F00EF88346504601F0DFFF002213466A
:1005F000CDE90C0101F0ECFF06D1584601F0BCFF3B
:10060000306028602060E0E004E0F149484601F0F5
:1006100049FD81460021484602F00EF8F5D34846D0
:1006200001F0C3FF0022EB4BCDE9080102F0C0FC52
:100630000022E94BCDE90A0101F015FFCDE90C01DB
:1006400001F0DEFF8146484601F096FF0746384636
:1006500001F078FF49460D9001F079FD8046504643
:1006600001F0A3FF0022DD4BCDE9060101F086FE7B
:10067000CDE90A01584601F098FFCDE90801DDE90E
:100680000A2301F07EFECDE90C0101F0B9FF1090C4
:100690004146504601F05EFD059001F086FF0022C4
:1006A000CE4BCDE9060101F069FECDE90A015846BD
:1006B00001F07BFFCDE90801DDE90A2301F061FECD
:1006C000CDE90C0101F09CFF0F90404601F06DFF59
:1006D0000022C24BCDE9000101F050FECDE904013A
:1006E000504601F062FFCDE90201DDE9042301F08B
:1006F00048FE0022B94BCDE9060101F03FFECDE9ED
:100700000A01584601F051FFCDE90801DDE90A234D
:1007100001F037FECDE90C0101F072FF0E90062FBB
:1007200052D2DFE807F003101D2A3744584601F083
:1007300023FF20600E9801F01FFF2860109801F041
:100740001BFF306040E00F9801F016FF2060584614
:1007500001F012FF2860109801F00EFF306033E0C6
:10076000109801F009FF2060584601F005FF28604D
:100770000E9801F001FF306026E0109801F0FCFEB9
:1007800020600F9801F0F8FE2860584601F0F4FE52
:10079000306019E00E9801F0EFFE2060109801F033
:1007A000EBFE2860584601F0E7FE30600CE058464A
:1007B00001F0E2FE2060109801F0DEFE28600F9844
:1007C00001F0DAFE306000BF00BF11B0BDE8F08F6D
:1007D0002DE9FF4F89B00F4690461C46169D09989B
:1007E00001F0B0FE019001F0E0FE0022774BCDE970
:1007F000020101F038FECDE9040101F001FF81465C
:10080000384601F09FFE019001F0CFFE00226F4BB1
:10081000CDE9020101F027FECDE9040101F0F0FE6F
:100820008246404601F08EFE019001F0BEFE00229D
:10083000664BCDE9020101F016FECDE9040101F09D
:10084000DFFE83465946504601F000FF01D2504674
:1008500000E0584601460590484601F0F7FE01D2F7
:10086000484607E05946504601F0F0FE01D2504696
:1008700000E0584606465946504601F0DDFE01D2DA
:10088000504600E0584601460590484601F0D4FE27
:1008900001D2484607E05946504601F0CDFE01D24C
:1008A000504600E0584607903046079901F04CFC4E
:1008B000069017980660304601F077FE0022134636
:1008C000CDE9040101F084FE05D03146069801F01F
:1008D00073FC286001E000202860286801F065FEB4
:1008E00000221346CDE9040101F072FE02D100207E
:1008F000206056E03146484601F09EFE09D1594637
:10090000504601F021FC0590069901F055FC20604D
:1009100026E03146504601F08FFE0ED1494658463A
:1009200001F012FC0490069901F046FC4FF0804162
:10093000059001F0B7FB206012E03146584601F007
:100940007BFE0DD15146484601F0FEFB049006990E
:1009500001F032FC4FF08141059001F0A3FB2060D3
:10096000206801F022FE00221B4BCDE9020101F0BC
:1009700008FDCDE9040101F043FE2060002120685C
:1009800001F05AFE0DD2206801F00FFE0022114B3B
:10099000CDE9020101F04EFCCDE9040101F030FE89
:1009A00020600DB0BDE8F08F2DE9F04792B004460D
:1009B0000E4600210A48006801F03EFE20D1324672
:1009C00001210520FFF73FFD250E0BE000E06F4001
:1009D0000000B4430080764000004E400000F03F2D
:1009E0000C000020C4F30749C4F3072A7348744974
:1009F000744B5246CDE9001049462846FFF7E8FE01
:100A0000714800685A2847DC0EA810A90FABCDE941
:100A100000106E4802686A4801686A480068FFF77B
:100A2000CBFD6B490F9808806448006801F0BDFD5C
:100A3000CDE90A016448006801F08DFD654A664B06
:100A4000CDE9000101F09DFC07460022634B01F057
:100A50000AFDCDE9020102F0F5FA0022604BCDE972
:100A6000040101F0E7FB00224FF08043CDE90601CD
:100A700001F0F9FCCDE90801DDE90A2301F081FC70
:100A8000CDE90C0101F0BCFD504908604E480068FA
:100A9000401C4D49086006E06FF059004A49086063
:100AA00000204A490860484800685A2804D10022BA
:100AB00001210520FFF7C7FC12B0BDE8F0872DE942
:100AC000F04792B004460E4600214648006801F007
:100AD000B3FD13D1324601210620FFF7B4FC250EE9
:100AE000C4F30749C4F3072A3F484049404B5246E4
:100AF000CDE9001049462846FFF76AFE3D480068E8
:100B000010F15A0F47DB0EA810A90FABCDE900106A
:100B1000344802683548016835480068FFF74CFDE5
:100B20002B490F9808803048006801F03EFDCDE960
:100B30000A013048006801F00EFD264A264BCDE937
:100B4000000101F01EFC07460022244B01F08BFC43
:100B5000CDE9020102F076FA0022214BCDE9040131
:100B600001F068FB00224FF08043CDE9060101F05F
:100B70007AFCCDE90801DDE90A2301F002FCCDE9A8
:100B80000C0101F03DFD174908601A480068401E3D
:100B90001849086005E05A201649086000201149EC
:100BA0000860144800685A3020B90022012106204C
:100BB000FFF749FC12B0BDE8F087000008000020F4
:100BC0000400002000000020100000200C00002085
:100BD000380400404AD8124DFB210940008066408D
:100BE0000000F03F200000201C0000201800002022
:100BF000140000202400002010B50446F749601AB4
:100C00008C4245D00CDCB4F1804F1DD0F448204418
:100C100018B3B0F5806F29D0B0F5006F54D12EE035
:100C2000B0F5806F3DD0B0F58E3F03D0B0F5923F68
:100C30004AD13FE00121C80201F04EF900214FF4F2
:100C4000006001F049F940E00121084601F051F946
:100C50000021012001F04DF937E00121022001F0CF
:100C600048F90021022001F044F92EE0012104207E
:100C700001F03FF90021042001F03BF925E00121BA
:100C8000082001F036F90021082001F032F91CE0BB
:100C90000121102001F02DF90021102001F029F987
:100CA00013E00121202001F024F90021202001F08F
:100CB00020F90AE00121480301F00EF900214FF468
:100CC000005001F009F900E000BF00BF10BD02882C
:100CD00002F08F020280CA884B881A4303881A43A5
:100CE00002808A8882850A880285BE4A904202D0A4
:100CF000BD4A904201D10A7A02860122828270475F
:100D000070B5002400220023058C4FF6FE76354096
:100D10000584028C8388048B4FF68F752C400D88D8
:100D20002C43751E2A400D892A434D882A43CD88BD
:100D30008586AC4DA84202D0AB4DA84213D14FF6E8
:100D4000F7752A404D892A434FF6FB752A408D8856
:100D50002A4347F6FF652B4047F6FF552B408D8908
:100D60002B43CD892B4383800483028470BD70B5EF
:100D7000002400220023058C4FF6EF7635400584D1
:100D8000028C8388048B48F6FF752C400D884FF643
:100D9000FF7606EA05252C434FF6DF752A400D89BC
:100DA00006EA05152A434D8806EA05152A43CD882B
:100DB00005878C4DA84202D08B4DA8421DD14FF61D
:100DC0007F752A404D894FF6FF7606EA05152A43BE
:100DD0004FF6BF752A408D8806EA05152A4347F667
:100DE000FF352B4047F2FF752B408D8906EA8505BC
:100DF0002B43CD8906EA85052B4383800483028437
:100E000070BD70B5002400220023058C4FF6FF66EC
:100E100035400584028C8388848B4FF68F752C4077
:100E20000D882C434FF6FF552A400D894FF6FF766B
:100E300006EA05252A434D8806EA05252A43CD887A
:100E40008587684DA84202D0674DA8421DD14FF258
:100E5000FF752A404D894FF6FF7606EA05252A439D
:100E60004FF6FF352A408D8806EA05252A4346F6C7
:100E7000FF752B4045F6FF752B408D8906EA051559
:100E80002B43CD8906EA05152B4383808483028496
:100E900070BD70B5002400220023058C4EF6FF764D
:100EA00035400584028C8388848B48F6FF752C407E
:100EB0000D884FF6FF7606EA05252C434DF6FF75A3
:100EC0002A400D8906EA05352A434D8806EA05358C
:100ED0002A43CD88A0F84050424DA84202D0424D4E
:100EE000A84207D1C3F30D038D894FF6FF7606EABA
:100EF00085152B4383808483028470BD828B4FF2DF
:100F0000FF331A408283828B4FF6FF7303EA01237B
:100F10001A4382837047F0B50C4615460021002223
:100F20000026078C4EF6FF7C07EA0C070784818BAE
:100F3000028C4FF6FF7707EA043640F6FF47394048
:100F40004FF6FF7707EA05274FF6FF7C0CEA033CD4
:100F500047EA0C0739434DF6FF773A4046F480578D
:100F60003A4381830284F0BD828B4FF6F3731A40BB
:100F70008283828B0A4382837047F0B50C46154604
:100F8000002100220026078C4FF6FF6C07EA0C07B1
:100F90000784818B028C4FF6FF7707EA04264FF611
:100FA0000C7739404FF6FF7707EA03172F43394391
:100FB0004FF6FF573A4046F480773A4381830284E4
:100FC000F0BD028B4FF2FF331A400283028B4FF6C3
:100FD000FF7303EA01231A430283704700100040A5
:100FE00000FCFFBF002C014000340140F0B50C466E
:100FF0001546002100220026078C4FF6EF7C07EAF9
:101000000C070784018B028C4FF6FF7707EA041662
:1010100040F6FF4739404FF6FF7707EA0337394379
:101020004FF6FF7707EA052739434FF6DF773A4057
:1010300046F010073A4301830284F0BD028B4FF65D
:10104000F3731A400283028B0A4302837047F0B5A0
:101050000C46154600210022068C4FF6FE773E40D6
:101060000684018B028C4FF60C7631407E1C06EA1A
:1010700003162E4331437E1E324044F001063243B4
:1010800001830284F0BD70B505460C46208850B936
:101090002389A28861882846FFF7D9FFE18828467E
:1010A000FFF7CCFF25E0208804280AD12389A288F5
:1010B00061882846FFF79AFFE1882846FFF781FFFD
:1010C00017E0208808280AD12389A2886188284649
:1010D000FFF753FFE1882846FFF746FF09E0238921
:1010E000A28861882846FFF716FFE1882846FFF7A7
:1010F00005FF70BD2DE9F04105460C46002601278D
:10110000608808B9022600E00026A088012801D1E5
:10111000022700E001272088A0B92389A2886188DE
:101120002846FFF794FFE1882846FFF787FF2389C9
:101130003A4631462846FFF759FFE1882846FFF72F
:1011400040FF13E02389A28861882846FFF74EFFFD
:10115000E1882846FFF735FF23893A46314628467D
:10116000FFF775FFE1882846FFF768FFBDE8F081CB
:101170000A884B881A438B881A43CB881A430B89F9
:101180001A434B891A438B891A43A0F844207047AD
:101190004FF6FF71818000210180C1804180017282
:1011A00070470021018041808180C180018141819F
:1011B0008181C181704700210180418001218180AE
:1011C0000021C18001817047002101804180818020
:1011D000C180018141818181704721B1028842F043
:1011E0000102028004E0028840F2FE331A400280CD
:1011F000704731B1B0F8442042F40042A0F84420D6
:1012000005E0B0F84420C2F30E02A0F84420704775
:101210001AB183890B43838102E083898B438381E5
:1012200070478182704741EA0203A0F84830704756
:101230001AB183890B43838102E083898B438381C5
:10124000704701894FF6F8721140018170470A46D4
:10125000002101894FF68F731940114301817047B6
:1012600030B504460D4629462046FFF7F0FF208999
:1012700040F00700208130BD2DE9F04104460D46C5
:1012800016461F46602D06D13B46012231462046B8
:10129000FFF7ACFE05E03B46012231462046FFF752
:1012A000D6FE29462046FFF7D2FF208940F00700EE
:1012B0002081BDE8F08170B50C4600210189C9B2DA
:1012C00044EA02054FF6FF7606EA03263543294332
:1012D000018170BD2DE9F04105460E46174698463E
:1012E000002443463A4631462846FFF7E4FF2C895E
:1012F0004FF6F870044044F007044FF68F70044036
:1013000044F070042C81BDE8F081F0B504460D4630
:1013100016461F463B46324629462046FFF7CBFF7E
:10132000208940F480402081F0BD01858282704791
:101330000A460021018840F28F3319401143018091
:101340007047F0B50C4615461E46002100220023CA
:101350000189028B038C4FF6F877394021434FF611
:10136000FC473A4040F201173A434FF6DD773B40E5
:101370004FF6FF7707EA06172F433B4301810283AD
:101380000384F0BD0A460021018B4FF68F7319408C
:101390001143018370470A460021018B48F6FF7311
:1013A00019404FF6FF7303EA022319430183704784
:1013B0000A460021818B4FF68F73194011438183B8
:1013C00070470A460021818B48F6FF7319404FF69B
:1013D000FF7303EA022319438183704721B1028816
:1013E00042F08002028004E0028840F27F331A401B
:1013F0000280704721B1828842F00402828004E0BA
:1014000082884FF6FB731A408280704721B1828830
:1014100042F00802828004E082884FF6F7731A4097
:101420008280704721B1828842F00102828004E00C
:1014300082884FF6FE731A40828070470A46002168
:10144000018B4FF6F77319401143018370470A4629
:101450000021018B4FF2FF7319404FF6FF7303EA2F
:1014600002231943018370470A460021818B4FF6FE
:10147000F77319401143818370470A460021818B1D
:101480004FF2FF7319404FF6FF7303EA022319432B
:10149000818370470A460021018B4FF6FB73194088
:1014A0001143018370470A460021018B4FF6FF3339
:1014B00019404FF6FF7303EA022319430183704773
:1014C0000A460021818B4FF6FB731940114381833B
:1014D00070470A460021818B4FF6FF3319404FF6C3
:1014E000FF7303EA02231943818370470A460021F0
:1014F000018B4FF67F7319401143018370470A46F1
:101500000021018BC1F30E014FF6FF7303EA0223A2
:101510001943018370470A460021818B4FF67F7380
:1015200019401143818370470A460021818BC1F322
:101530000E014FF6FF7303EA0223194381837047BC
:101540000A460021018C4FF6FD73194011430184B6
:1015500070470A460021018C4FF6F773194011437A
:10156000018470470A460021018C4FF6DF73194051
:101570004FF6FF7303EA02131943018470470A46CA
:101580000021018C4FF67F7319404FF6FF7303EA79
:1015900002131943018470470A460021018C4FF65B
:1015A000FF5319404FF6FF7303EA022319430184E6
:1015B00070470A460021018C4FF2FF7319404FF625
:1015C000FF7303EA02231943018470470A4600218E
:1015D000018C4DF6FF7319404FF6FF7303EA023397
:1015E00019430184704710B5038C01248C40A34338
:1015F0000384038C02FA01F4A4B22343038410BDD4
:1016000010B5038C04248C40A3430384038C02FA9A
:1016100001F4A4B22343038410BD30B5038C01242C
:101620008C40A343038409B1082918D100F11803A1
:1016300003EB61031B684FF68F74234000F118041D
:1016400004EB6104236000F1180303EB61031B68E2
:10165000134300F1180404EB610423601FE00B1F27
:10166000C3F34E0400F118031B5948F6FF742340DE
:101670000C1FC4F34E0500F1180463510B1FC3F394
:101680004E0400F118031B594FF6FF7404EA0224BC
:1016900023430C1FC4F34E0500F11804635130BD01
:1016A00021B1028842F00202028004E0028840F286
:1016B000FD331A400280704721B1028842F00402D3
:1016C000028004E0028840F2FB331A400280704737
:1016D00021B1828842F08002828004E082884FF645
:1016E0007F731A4082807047028840F2F7331A40B5
:1016F000028002880A430280704782884FF68F7307
:101700001A40828082880A438280704702894FF69D
:10171000F8731A40028102890A43028170470289E4
:101720004FF67F731A40028102890A430281704793
:101730008184704781857047818670470187704733
:1017400081877047A0F8401070470288D2B20280AB
:1017500002880A43028070470146888E704701461E
:10176000088F70470146888F70470146B1F84000E6
:1017700070470146888C70470146088D70470246C5
:101780000020138A0B400BB1012000E000207047BD
:10179000CA430282704730B502460020002300246D
:1017A000158A05EA0103958905EA010413B10CB114
:1017B000012000E0002030BDCA43028270470000D3
:1017C00031490143314A1160704770B5002100234F
:1017D0000F22C47804B32D4C246804F4E064C4F5EB
:1017E000E064210AC1F10403CA40447804FA03F119
:1017F0008478144021430901254C0678A1550478CA
:1018000004F01F050124AC4005786D11AD0005F111
:10181000E025C5F8004109E0047804F01F05012423
:10182000AC401C4D0678761145F8264070BD1A4A2A
:101830000A400243154B1B1F1A60704739B1134A07
:10184000121D12680243114B1B1D1A6006E00F4A5D
:10185000121D126882430D4B1B1D1A60704704282D
:1018600008D14FF0E021096941F004014FF0E02276
:10187000116107E04FF0E021096921F004014FF008
:10188000E0221161704700000000FA050CED00E055
:1018900000E400E080E100E080FFFF1F10B5044697
:1018A000C649601A8C422FD009DCC548204480B15B
:1018B000B0F5806F16D0B0F5006F4AD11BE0B0F5DF
:1018C000806F2AD0B0F5006F30D0B0F5406F40D1B6
:1018D00035E00121042000F0FFFA0021042000F08F
:1018E000FBFA37E00121082000F0F6FA0021082079
:1018F00000F0F2FA2EE00121102000F0EDFA0021B4
:10190000102000F0E9FA25E00121202000F0E4FA9F
:101910000021202000F0E0FA1CE00121402000F02E
:10192000DBFA0021402000F0D7FA13E001218020EB
:1019300000F0D2FA0021802000F0CEFA0AE0012166
:10194000080200F0C9FA00214FF4807000F0C4FAD8
:1019500000E000BF00BF10BD10B50121084600F037
:10196000BBFA0021012000F0B7FA10BD2DE9F041CB
:10197000024600250026002000230024002791F8BD
:1019800003C00CF00F0591F803C00CF0100CBCF173
:10199000000F03D091F802C04CEA050591F800C091
:1019A000BCF1000F31D0146800202BE04FF0010C87
:1019B0000CFA00F3B1F800C00CEA03069E4220D1F5
:1019C00083004FF00F0C0CFA03F7BC4305FA03FC3D
:1019D0004CEA040491F803C0BCF1280F06D14FF083
:1019E000010C0CFA00FCC2F814C00AE091F803C024
:1019F000BCF1480F05D14FF0010C0CFA00FCC2F805
:101A000010C0401C0828D1D31460B1F800C0BCF14C
:101A1000FF0F34DD546800202EE000F1080C4FF079
:101A2000010808FA0CF3B1F800C00CEA03069E4264
:101A300021D183004FF00F0C0CFA03F7BC4305FAD9
:101A400003FC4CEA040491F803C0BCF1280F05D153
:101A500000F1080C08FA0CF8C2F8148091F803C0E1
:101A6000BCF1480F07D100F1080C4FF0010808FA4B
:101A70000CF8C2F81080401C0828CED35460BDE892
:101A8000F0814FF6FF710180022181700421C17045
:101A900070470246002093680B400BB1012000E024
:101AA000002070470146886880B2704702460020D7
:101AB000D3680B400BB1012000E0002070470146C5
:101AC000C86880B2704701617047416170470AB1D0
:101AD000016100E041617047C16070474FF480329E
:101AE0000A4382618161826182698269704702462C
:101AF0000020344B18684FF68073184040EA0210FB
:101B00000843304B186070472F49C8617047F0B5E3
:101B10000A4600230024002100252A4E7168C0F3E4
:101B2000034583B200F44016B6F5401F08D121F0FA
:101B30007061244E766826F07066224F7E6012E057
:101B400000F48016B6F5801F06D1032606FA05F4C8
:101B5000A14341F0706106E0460D360103FA06F636
:101B6000B14341F0706122B1460D360103FA06F629
:101B70003143144E7160F0BD30B500228B071C0F4D
:101B80000F2303FA04F20F4B08338C1053F8243060
:101B900093430C4C08348D1044F8253023468C10A8
:101BA00053F824308C07240F00FA04F42343054C27
:101BB00008348D1044F8253030BD00000014014079
:101BC00000F8FEBF0000014000002042DE4800682F
:101BD00040F00100DC49086008464068DB490840E5
:101BE000D949486008460068D9490840D649086084
:101BF0000846006820F4802008600846406820F409
:101C0000FE004860002088607047CF49096821F4D1
:101C10008031CD4A11601146096821F4802111609C
:101C2000B0F5803F03D0B0F5802F0ED106E0C64955
:101C3000096841F48031C44A116007E0C24909686B
:101C400041F4A021C04A116000E000BF00BF70470E
:101C500010B501460022002300204A11012A02D1BA
:101C6000B94C236806E0022A02D1B74C236A01E08E
:101C7000B54C636A01F01F02012494401C400CB172
:101C8000012000E0002010BD38B5002000900024A5
:101C9000002500BF3120FFF7DBFF05460098401C00
:101CA00000901DB90098B0F5A06FF3D13120FFF777
:101CB000CFFF08B1012400E00024204638BD0146D2
:101CC0000020A14A106820F0F80040EAC10010602E
:101CD0007047A04908607047024600209A4B586838
:101CE00020F47C1042EA01031843974B5860704778
:101CF00098490866704701460020934A506820F0D2
:101D000003000843506070478F48406800F00C00A3
:101D10007047014600208C4A506820F0F0000843CC
:101D20005060704701460020874A506820F4E06008
:101D300008435060704701460020834A506820F4F1
:101D4000605040EAC1005060704729B17E4A527A23
:101D500002437D4B5A7204E07B4A527A82437A4BAB
:101D60005A7270477B49D83108607047014600209D
:101D7000754A506820F44040084350607047002185
:101D8000714A20321170704A82F82010012802D066
:101D900004280AD104E001216B4A2032117005E0C9
:101DA0000521694A2032117000E000BF00BF704772
:101DB0006949086070476449096A0143624A1162CF
:101DC0007047654944390860704730B500210022EA
:101DD000002400235C4D6D6805F00C0121B104293D
:101DE00005D0082923D105E05C4D056022E05B4D5C
:101DF00005601FE0544D6D6805F47012022505EB77
:101E00009242514D6D6805F480341CB9544D5543D0
:101E100005600BE04C4D6D6805F400351DB1504D6B
:101E20005543056002E04D4D5543056002E04B4DC2
:101E3000056000BF00BF444D6D6805F0F001090961
:101E4000484D6B5C0568DD4045603F4D6D6805F4AD
:101E5000E061090A434D6B5C4568DD4085603A4DA1
:101E60006D6805F46051C90A3E4D6B5C4568DD4004
:101E7000C560354D6D6805F44041890B3A4D6B5C8A
:101E8000C568B5FBF3F5056130BD29B12E4A52692D
:101E900002432D4B5A6104E02B4A526982432A4B7C
:101EA0005A61704729B1284A92690243264B9A61C8
:101EB00004E0254A92698243234B9A61704729B115
:101EC000214AD2690243204BDA6104E01E4AD269FA
:101ED00082431D4BDA61704729B11B4AD268024325
:101EE000194BDA6004E0184AD2688243164BDA6074
:101EF000704729B1144A12690243134B1A6104E076
:101F0000114A12698243104B1A61704712494039D5
:101F1000086070470F49C86470470B49C871704723
:101F20000948406A40F0807007494862704701469E
:101F30000020054A92680A400AB1012000E0002012
:101F40007047014988727047001002400000FFF896
:101F5000FFFFF6FE000042428004424200127A0077
:101F600000093D0028000020380000200CB50020AA
:101F7000019000904748006840F48030454908606F
:101F800000BF4448006800F4003000900198401CF5
:101F90000190009818B90198B0F5A06FF1D13D48B3
:101FA000006800F4003010B10120009001E0002032
:101FB00000900098012844D13748006840F0100094
:101FC000354908600846006820F0030008600846AC
:101FD000006840F0020008602E4840682D494860C3
:101FE0000846406848600846406840F480604860A1
:101FF0000846406820F47C1048600846406840F479
:10200000E81048600846006840F08070086000BF33
:102010002048006800F000700028F9D01D48406892
:1020200020F003001B4948600846406840F0020069
:10203000486000BF1748406800F00C000828F9D13C
:1020400001E000BFFEE70CBD10B5FFF78FFF10BD2C
:1020500010B51048006840F001000E4908600846BD
:1020600040680E4908400B494860084600680C4922
:102070000840084908600846006820F4802008608D
:102080000846406820F4FE00486000208860FFF7A2
:10209000DBFF10BD00100240002002400000FFF8EE
:1020A000FFFFF6FEF0B480EA0102D40F4200B2EB6B
:1020B000410F02D20246084611464A0042D0C30DE3
:1020C000DDB2C1F3C752AD1A202D35DAC1F31601C6
:1020D00041F4000204B15242C5F1200602FA06F1B1
:1020E0002A411044B3EBD05F23D0C4B1012DA0EB43
:1020F000C35009DCF0BC4FF0004202EAC352DBB22D
:1021000000F5000000F0D6BA400000F1807000EB4E
:10211000C350A0F1807040EAD170490009E049083D
:1021200041EAC071A0EBC35000F50000400800EB8D
:10213000C350F0BC00F0B5BA6142012202EB41018C
:10214000001BF6E7F0BC704781F00041AAE780F081
:102150000040A7E780EA010210B502F0004340000A
:1021600022D04A001FD0010E01EB1261C0F35600CD
:10217000C2F3560240F4000042F40002A0FB022029
:1021800000047F39140400D0401C50EA124001D4EE
:102190004000491EC2B20C0604EBD010401C40089F
:1021A000802A02D003E0002010BD20F001000029A9
:1021B00000DA0020184310BD30B480EA010202F0BA
:1021C000004530F0004221F0004013D090B1C30D23
:1021D000D40DC2F31601C0F31600E41A41F4000155
:1021E00040F400027D34914201D3641C00E04900B8
:1021F000002C02DA30BC002070474FF400000023AE
:10220000914201D3891A034340084FEA4101F7D1B3
:1022100051B1914202D14FF0004105E002D24FF09E
:10222000010101E06FF0010103EBC450284430BC10
:1022300000F037BA2DE9FE4F804681EA0300C00F57
:102240000C46009021F0004123F00045B8EB02005D
:10225000A94105D24046214690461C460B460246FF
:1022600023F00040104347D0270DC7F30A00C3F303
:102270000A510290401A019040286BDAC3F3130010
:1022800040F4801B0098924620B10023D2EB030A51
:1022900063EB0B0B01985946C0F14002504600F029
:1022A000DFF906460D4650465946019A00F0E7F917
:1022B00010EB08006141002487EA115284EAE773B9
:1022C0001A4340D0009A62B3019A012A4FEA07529A
:1022D00015DC001B61EB02014FF0004202EA0752DD
:1022E000CDE90042001C41F5801132462B4600F03A
:1022F0001EFA03B0BDE8F08F40462146F9E7001B07
:1023000061EB0201001C41F5801300185B412018AD
:10231000A2F5001747EB030140EAD570B6196D41ED
:1023200011E06D084FEA360645EAC0754FEA0752DC
:10233000001B61EB0201001C41F5801149084FEAC6
:1023400030000019514132462B4603B0BDE8F04F32
:1023500000F0DEB90098012240000023D0EB020219
:1023600063EBE073009821464FEAE074B8EB00009D
:1023700061EB0401E9E783F000435BE781F0004192
:1023800058E72DE9FE4F81EA030404F0004421F0F0
:10239000004100944FF0000B23F0004350EA010489
:1023A0005ED052EA03045BD0C3F30A54C1F30A556A
:1023B0002C44A4F2F3340194A0FB0254C1F31301A2
:1023C00041F48011C3F3130343F4801301FB02446F
:1023D00000FB034E840A970A44EA815447EA835774
:1023E000A4FB076802958D0A05FB07854FEA932C2D
:1023F00004FB0C542705029D4FEA065847EA16379E
:10240000B5EB08056EEB070C870E920E47EA8117B5
:1024100042EA8312A7FB0201B6EB0B0164EB000456
:102420002B0D43EA0C335E1844EB1C50DA46514640
:10243000E7FB0201C5F313044FEA0B3343EA1453DD
:102440004FEA0432019C43EA0603A4F10C0402940F
:10245000009CCDE900B400F06AF903B0BDE8F08F4C
:1024600000200146F9E72DE9F04D81EA030404F06C
:10247000004B21F0004514464FF0000A23F00041C4
:1024800050EA050220D054EA01021DD0C5F30A57D4
:102490000246C5F31303C1F31300C1F30A5640F417
:1024A000801543F48013A7EB0608101BD64608F2EC
:1024B000FD3873EB050002D308F1010801E0921822
:1024C0005B41B8F1000F03DA00200146BDE8F08D52
:1024D00000204FF48011064684460EE0171B73EB74
:1024E000050705D3121B63EB050306434CEA010CF9
:1024F00049084FEA300092185B4150EA0107EDD1DC
:1025000052EA030012D082EA040083EA050108437C
:1025100005D0101BAB4106D20122002306E00022A9
:102520004FF0004302E06FF0010253101AEB060077
:102530004CEB085110EB0A0041EB0B01BDE8F04DEC
:1025400000F0E6B8C10F80EAE0700844CA0796239D
:10255000002100F0AFB80EB5C10F80EAE07008446A
:10256000CA07002140F233438DE80E000A460B46AD
:1025700000F0DDF803B000BD00F0004220F00040A4
:10258000C10DC0F3160040F400007F2901DA0020DD
:102590007047962903DCC1F19601C84001E09639E5
:1025A0008840002AF4D04042704700F0004230F0EA
:1025B00000400AD0C10D01F56071C0F3160042EA77
:1025C0000151C2084007114370470020014670477F
:1025D00030B5041E71F1000404DB4FF000444042AA
:1025E00064EB0101141E73F1000405DB1C464FF07F
:1025F0000043524263EB04038B4208BF824230BD6A
:1026000001F0004330B421F0004150EA010206D04D
:102610000A0DA2F56072C1F31301002A02DC30BC7E
:1026200000207047440F44EAC104C100E01830BCE8
:1026300000EBC25000F035B8002801DBC0F10040CB
:10264000002901DBC1F1004181427047002801DB14
:10265000C0F10040002901DBC1F100418842704710
:10266000202A04DB203A00FA02F100207047914052
:10267000C2F1200320FA03F3194390407047202A47
:1026800006DBCB17203A41FA02F043EAE07306E09A
:1026900041FA02F3D040C2F12002914008431946AA
:1026A00070470029A8BF7047401C490008BF20F0B0
:1026B0000100704710B4B0FA80FC00FA0CF050EA48
:1026C000010404BF10BC704749B1CCF1200421FAC9
:1026D00004F411FA0CF118BF012121430843A3EBC4
:1026E0000C01CB1D4FEA00614FEA102042BF0020D1
:1026F00010BC704700EBC35010440029A4BF10BCAD
:102700007047401C490008BF20F0010010BC704712
:1027100010B5141E73F1000408DA401C41F10001E9
:1027200092185B411A4301D120F0010010BD2DE940
:10273000F04D92469B4611B1B1FA81F202E0B0FA37
:1027400080F220329046FFF78BFF04460F4640EAA6
:102750000A0041EA0B0153465A46084313D011467A
:1027600053EA010019D0C8F14002504600F082F847
:1027700005460E46504659464246FFF771FF08434C
:1027800005D0012004E020463946BDE8F08D002048
:10279000054346EAE0762C4337430A986305E40A8A
:1027A000A0EB08000022FD0A44EA47540A3002D593
:1027B00000200146E9E7010510196941DDE90845F6
:1027C00000196941BDE8F04DA2E72DE9FE4FC3F3C2
:1027D0000A5701F000450024C1F30A56C3F313035E
:1027E000C1F3130143F4801312EB020AA64641F42D
:1027F0008011009543EB030CA7F1010B16E0B0EB41
:102800000A0061EB0C01071E71F1000707DA4FF0B7
:102810000008D0EB080085F0004568EB0101171AAD
:1028200073EB0107EBD3761E001849415E45F6DADB
:1028300050EA010209D0CDE900E5002213460296D4
:10284000FFF775FF03B0BDE8F08F20460099F9E768
:10285000064C074D06E0E06840F0010394E80700ED
:1028600098471034AC42F6D3FDF766FC08320008F6
:1028700028320008202A04DB203A21FA02F0002145
:10288000704721FA02F3D040C2F120029140084380
:102890001946704770B521F0004303430CD0C1F3D3
:1028A0000A550024D5EB040564EB0403D617AD1AD2
:1028B000B34102DB0020014670BD201841EB0251FC
:1028C00070BD0EB540F2334102910021CDE90011F7
:1028D0000A460B46FFF72BFF03B000BD70B5C1F3EE
:1028E0000A5201F000450024C1F3130140F2FF3306
:1028F00041F480119A4201DA002070BD40F2334366
:102900009A42A2F2334203DC5242FFF7B3FF00E0E7
:1029100090402C43F1D0404270BD490050EAC120A4
:1029200018BF04204A0D18BF40F0010040F2FF72AA
:10293000B2EB515F08BF40F00200012808BF05203C
:10294000704700002DE9F74F144694B00021C4E908
:1029500002111599079121F00045C9498D4206DC05
:102960001599C4E9000117B00020BDE8F08FC549F2
:10297000DFF814A3A9423CDD0799C44E0029C44FD7
:10298000C44A1599534619DDFFF7F5FC554506D0A5
:10299000C14AC24BFFF7EFFCC4E900010AE04FF067
:1029A000D352BE4BFFF7E7FC32463B46FFF7E3FC52
:1029B000C4E9000117B00120BDE8F08FFFF73AFC31
:1029C000554506D0B44AB54BFFF734FCC4E90001C5
:1029D0000AE04FF0D352B14BFFF72CFC32463B4696
:1029E000FFF728FCC4E9000117B04FF0FF30BDE845
:1029F000F08FAB49A942159978DB21F0004183465D
:102A00008846A84AA84BFFF7BCFC0022A74BFFF75B
:102A100011FCFFF763FF0990FFF79DFD06460F4687
:102A20009C4A5346FFF7ADFC43465A46FFF7A6FCC7
:102A300080468A46984A994B30463946FFF7A1FCB2
:102A40002A0D01250B9242465346FFF797FC032DB2
:102A5000C4E9000139D00B98C1F30A51401A05EBC3
:102A600045111139814230DA9148C346784400EB70
:102A70000510CDF80CA00C90D0E900233046394663
:102A8000FFF77FFC02460B460491069058460399D7
:102A9000FFF771FC80468A4602460B46584603996A
:102AA000FFF769FC049B069AFFF765FC83460C98C8
:102AB00003913946D0E902233046FFF762FC5A46BB
:102AC000039BFFF758FC6D1CBDE707980028A2BFC9
:102AD000099817B0BDE8F08F616881F0004161602E
:102AE000099817B04042BDE8F08FFFE7844615987B
:102AF000C1F31301C0F30A50A0F2F5304FEA601899
:102B000000F01F06C6F120001390002006900790E9
:102B100041F4801E05206D4676B1664A08EB00013F
:102B20007A4452F8213002EB8101B3404A6813998C
:102B300022FA01F1194305E05F4908EB00027944EC
:102B400051F82210A1FB0E27A1FB0C131A449A4244
:102B500034BF0123002303EB070A05EB8003D3E90D
:102B600001B70F448F4234BF0121002193448B44AD
:102B700011B1934502D903E0934501D2012100E050
:102B80000021C3E901B7514445F82010011EA0F10E
:102B90000100C1DC0298059F00F10050800F1290E7
:102BA0000298DDE903568000FFF7D5FC83462846EE
:102BB0000D91FFF786FE6FF01D02FFF76BFECDE96A
:102BC0000E013046FFF77DFE6FF03D02FFF762FE1B
:102BD00080468A463846FFF774FE6FF05D02FFF7C5
:102BE00059FE0746424653461191FFF723FBDDE9A4
:102BF0000E23FFF71FFB5A460D9BFFF71BFB00251B
:102C00000E465A4628460D9BFFF7B5FBDDE90E231D
:102C1000FFF7B1FB42465346FFF7ADFB3A46119B27
:102C2000FFF7ACFBDFF898A0244A5346FFF7A9FB57
:102C300007468846234A244B31462846FFF7A1FB26
:102C40003A464346FFF7F6FA074688464FF0A84251
:102C5000534631462846FFF794FB3A464346FFF772
:102C6000E9FA159A12F0004F04D0129A81F000414F
:102C700052421292C4E90001129817B0BDE8F08FD9
:102C8000FB21E93F7CD90240FB21F93F7370032E01
:102C90008A19A33B000040543163621A61B4D03DED
:102CA000FB21394183C8C96D305FE43F0000E03F3C
:102CB000A80600002406000006060000182D445453
:102CC000FB21F93D3326A611460B113C2DE9FF4DA2
:102CD00021F0004807460C46B8F1795F08DAFFF7A3
:102CE000FDFD002801BF0020324904B0BDE8F08D91
:102CF0003A46234610461946FFF743FB054602466F
:102D00002D480E460B460621784400F05DF82A4611
:102D10003346FFF736FBDDE9022382468B46384611
:102D20002146FFF72EFB04460F4652465B462846D7
:102D30003146FFF726FB22463B46FFF71CFB0746C2
:102D40008A464FF0FF3228463146FFF7A3FD1B4A63
:102D500090450ADA3A465346FFF70DFB04B00022CD
:102D6000BDE8F04D134BFFF709BB154A4245A8BF1C
:102D7000A8F500154FF00004B8BF124D22462B46AF
:102D8000FFF7F9FA0646884622462B4600200949F5
:102D9000FFF7F1FA04460D463A465346304641469F
:102DA000FFF7E9FA04B022462B46BDE8F04DFFF7E5
:102DB000E5BA00000000F03FDC0300003333D33FEE
:102DC0000000E93F0000D23F2DE9F0414F1E00EB2B
:102DD000C7010446D1E9000115461E4637F0060238
:102DE0000DD02A463346FFF7CCFA7F1E04EBC7030B
:102DF000D3E90023FFF71EFA37F00602F1D1022FC4
:102E000025D0042F13D0062F18BFBDE8F0812A4625
:102E10003346FFF7B6FAD4E90A23FFF70BFA2A463E
:102E20003346FFF7AEFAD4E90823FFF703FA2A4640
:102E30003346FFF7A6FAD4E90623FFF7FBF92A4643
:102E40003346FFF79EFAD4E90423FFF7F3F92A4645
:102E50003346FFF796FAD4E90223FFF7EBF92A4647
:102E60003346FFF78EFAD4E90023BDE8F041FFF7BF
:102E7000E1B900002DE9FF4D054621F0004084B086
:102E80000C46B0F1795F0BDA2846FFF746FD0428BF
:102E900008BF00F06FF8284608B02146BDE8F08D65
:102EA0002A460B461046FFF76CFA06460F462A469E
:102EB0002346FFF766FA804626488A4632463B4656
:102EC00005217844FFF780FF83461098029160B394
:102ED000214A224B40465146FFF753FACDE9000103
:102EE0005A4640465146029BFFF74BFA82468846B7
:102EF000DDE906014FF0FF32FFF7CCFC52464346B6
:102F0000FFF739FA32463B46FFF73BFADDE9062385
:102F1000FFF731FADDE90023FFF72DFA08B02A4662
:102F20002346BDE8F04DFFF729BA0B465A46304616
:102F30003946FFF726FA084A084BFFF77BF9424665
:102F40005346FFF71EFA08B02A462346BDE8F04D67
:102F5000FFF770B91A030000495555555555C5BFBF
:102F60000122FFF797BC0022134610461146FFF7D7
:102F70007ABA0000024A00201107FFF78BBC00005C
:102F800001FDFFFF02E008C8121F08C1002AFAD1A4
:102F900070477047002001E001C1121F002AFBD1D9
:102FA0007047000001490860704700003C000020A5
:102FB00070B514461D460E46002814BF012100219D
:102FC000314321F00041C1F17F6101F1E041C90FBE
:102FD00016D1002C14BF01210021294321F000410A
:102FE000C1F17F6101F1E041C90F09D11449B1EB91
:102FF000460F08BF00281CD0690008BF002C18D05D
:103000003146FFF7E2FB024640F2FF7030EA115012
:103010000DD0F017B0EBE17F09D0084665F31E0034
:1030200084460B4620466146FFF7A8F90246104643
:1030300070BD0120FFF7B6FFBDE87040FFF793BFFA
:103040000000E0FF00B5254B21F0004287B09A4216
:1030500003DC0022134600922BE0214B9A4208D158
:1030600040B94FF00100FFF79DFFFFF77CFF07B06D
:1030700000BD03DBFFF774FF07B000BD02AAFFF736
:1030800061FC10F003014FF001000DD0012914D0B4
:1030900002291AD00DF1080C9CE80F00FFF716FE6C
:1030A00007B081F0004100BD0DF1080C00909CE8D4
:1030B0000F00FFF7DFFE07B000BD0DF1080C9CE824
:1030C0000F00FFF703FE07B000BD0DF1080C0090E4
:1030D0009CE80F00FFF7CEFEE2E70000FB21E93F8E
:1030E0000000F07F000000004C5555555555A53F98
:1030F0007751C1166CC156BF9015CB19A001FA3E8D
:10310000AD529C804F7E92BEC4B1B4BD9EEE213EB6
:10311000D43888BEE9FAA8BD00004054FB21F93F2D
:103120003163621A61B4D03D0000601A61B4D03DD1
:103130007370032E8A19A33B0000002E8A19A33B4B
:10314000C14920259A837B3900000000000000005F
:103150006E83F9A22915444ED15727FCC0DD34F502
:10316000999562DB4190433CAB6351FE61C5BBDE88
:103170003A6E24B7E0D24D42EA2E49061C92D1099C
:103180001CEB1DFE3EA729B1F53582E88444BB2E19
:1031900026709CE9417E5FB439D69139F439538366
:1031A0008B5F849C3B28F9BDFF97F81F0F9805DEC5
:1031B0008B112FEF1F6D0A5ACF7E366DB709CB27C3
:1031C000663F464F2DEA5F9EC7BA27757BF1E5EB58
:1031D000F739073DEA92528AB15FFB6B085D8D1F9C
:1031E000A6F810111111813FD561C119A0012ABFA4
:1031F0007DFEB157E31DC73EEB9C2B8AE6E55ABE28
:103200007CD5CF5A3AD9E53D28320008000000208D
:1032100040000000842F00086832000840000020B1
:1032200078020000942F0008000000000000000059
:103230000000000000000000A6FFFFFF00000000EB
:103240000000000000000000000000005A00000024
:10325000000000000102030401020304060708093C
:08326000020406080000000052
:0400000508000147A7
:00000001FF
